{
  "_format": "hh-sol-artifact-1",
  "contractName": "SC_j",
  "sourceName": "contracts/SC_j.sol",
  "abi": [
    {
      "inputs": [
        {
          "internalType": "uint256",
          "name": "reward_",
          "type": "uint256"
        },
        {
          "internalType": "uint256",
          "name": "time",
          "type": "uint256"
        },
        {
          "internalType": "string",
          "name": "data_",
          "type": "string"
        },
        {
          "internalType": "string",
          "name": "cert",
          "type": "string"
        },
        {
          "internalType": "string",
          "name": "req_pk",
          "type": "string"
        },
        {
          "internalType": "string",
          "name": "CA_pk",
          "type": "string"
        },
        {
          "internalType": "uint256[]",
          "name": "ans_",
          "type": "uint256[]"
        }
      ],
      "stateMutability": "nonpayable",
      "type": "constructor"
    },
    {
      "stateMutability": "nonpayable",
      "type": "fallback"
    },
    {
      "inputs": [
        {
          "internalType": "string",
          "name": "cert",
          "type": "string"
        },
        {
          "internalType": "uint256",
          "name": "ID",
          "type": "uint256"
        },
        {
          "internalType": "uint256",
          "name": "unixTimeStamp",
          "type": "uint256"
        },
        {
          "internalType": "bytes",
          "name": "pk",
          "type": "bytes"
        },
        {
          "internalType": "uint32",
          "name": "count",
          "type": "uint32"
        },
        {
          "internalType": "uint32",
          "name": "rep",
          "type": "uint32"
        }
      ],
      "name": "Accept_task",
      "outputs": [
        {
          "internalType": "bool",
          "name": "",
          "type": "bool"
        }
      ],
      "stateMutability": "payable",
      "type": "function"
    },
    {
      "inputs": [
        {
          "internalType": "uint256",
          "name": "random_num",
          "type": "uint256"
        },
        {
          "internalType": "uint256",
          "name": "rep",
          "type": "uint256"
        }
      ],
      "name": "Aggregate_answer",
      "outputs": [
        {
          "internalType": "uint256",
          "name": "x",
          "type": "uint256"
        }
      ],
      "stateMutability": "nonpayable",
      "type": "function"
    },
    {
      "inputs": [
        {
          "internalType": "uint32",
          "name": "count",
          "type": "uint32"
        },
        {
          "internalType": "uint32",
          "name": "rep",
          "type": "uint32"
        }
      ],
      "name": "Stake_Price",
      "outputs": [
        {
          "internalType": "uint256",
          "name": "",
          "type": "uint256"
        }
      ],
      "stateMutability": "view",
      "type": "function"
    },
    {
      "inputs": [],
      "name": "addr",
      "outputs": [
        {
          "internalType": "address",
          "name": "",
          "type": "address"
        }
      ],
      "stateMutability": "view",
      "type": "function"
    },
    {
      "inputs": [
        {
          "internalType": "uint256",
          "name": "",
          "type": "uint256"
        }
      ],
      "name": "ans",
      "outputs": [
        {
          "internalType": "uint256",
          "name": "",
          "type": "uint256"
        }
      ],
      "stateMutability": "view",
      "type": "function"
    },
    {
      "inputs": [
        {
          "internalType": "uint256",
          "name": "",
          "type": "uint256"
        }
      ],
      "name": "ans_count",
      "outputs": [
        {
          "internalType": "uint256",
          "name": "",
          "type": "uint256"
        }
      ],
      "stateMutability": "view",
      "type": "function"
    },
    {
      "inputs": [
        {
          "internalType": "uint256",
          "name": "",
          "type": "uint256"
        }
      ],
      "name": "ans_hash",
      "outputs": [
        {
          "internalType": "bytes32",
          "name": "",
          "type": "bytes32"
        }
      ],
      "stateMutability": "view",
      "type": "function"
    },
    {
      "inputs": [],
      "name": "cert_req",
      "outputs": [
        {
          "internalType": "string",
          "name": "",
          "type": "string"
        }
      ],
      "stateMutability": "view",
      "type": "function"
    },
    {
      "inputs": [],
      "name": "data",
      "outputs": [
        {
          "internalType": "string",
          "name": "",
          "type": "string"
        }
      ],
      "stateMutability": "view",
      "type": "function"
    },
    {
      "inputs": [
        {
          "internalType": "bytes32",
          "name": "xvi",
          "type": "bytes32"
        },
        {
          "internalType": "bytes32",
          "name": "proof",
          "type": "bytes32"
        }
      ],
      "name": "provideXvi",
      "outputs": [
        {
          "internalType": "bool",
          "name": "",
          "type": "bool"
        }
      ],
      "stateMutability": "nonpayable",
      "type": "function"
    },
    {
      "inputs": [],
      "name": "reward",
      "outputs": [
        {
          "internalType": "uint256",
          "name": "",
          "type": "uint256"
        }
      ],
      "stateMutability": "view",
      "type": "function"
    },
    {
      "inputs": [
        {
          "internalType": "uint256",
          "name": "x",
          "type": "uint256"
        }
      ],
      "name": "setReward",
      "outputs": [],
      "stateMutability": "nonpayable",
      "type": "function"
    },
    {
      "inputs": [],
      "name": "show_ans",
      "outputs": [
        {
          "internalType": "uint256",
          "name": "",
          "type": "uint256"
        }
      ],
      "stateMutability": "view",
      "type": "function"
    },
    {
      "inputs": [],
      "name": "staking",
      "outputs": [
        {
          "internalType": "uint256",
          "name": "",
          "type": "uint256"
        }
      ],
      "stateMutability": "view",
      "type": "function"
    },
    {
      "inputs": [],
      "name": "task_time",
      "outputs": [
        {
          "internalType": "uint256",
          "name": "",
          "type": "uint256"
        }
      ],
      "stateMutability": "view",
      "type": "function"
    },
    {
      "inputs": [
        {
          "internalType": "address",
          "name": "",
          "type": "address"
        }
      ],
      "name": "verifier",
      "outputs": [
        {
          "internalType": "bool",
          "name": "task_accept",
          "type": "bool"
        },
        {
          "internalType": "bytes32",
          "name": "xvi",
          "type": "bytes32"
        },
        {
          "internalType": "string",
          "name": "cert",
          "type": "string"
        },
        {
          "internalType": "uint256",
          "name": "ID",
          "type": "uint256"
        },
        {
          "internalType": "uint256",
          "name": "unixTimeStamp_expire",
          "type": "uint256"
        },
        {
          "internalType": "bytes",
          "name": "pk",
          "type": "bytes"
        },
        {
          "internalType": "uint256",
          "name": "ans",
          "type": "uint256"
        },
        {
          "internalType": "bytes32",
          "name": "proof",
          "type": "bytes32"
        },
        {
          "internalType": "uint256",
          "name": "reputation",
          "type": "uint256"
        }
      ],
      "stateMutability": "view",
      "type": "function"
    },
    {
      "inputs": [
        {
          "internalType": "bytes32",
          "name": "proof_",
          "type": "bytes32"
        }
      ],
      "name": "withdraw_reward",
      "outputs": [],
      "stateMutability": "nonpayable",
      "type": "function"
    }
  ],
  "bytecode": "0x60806040523480156200001157600080fd5b5060405162002e0d38038062002e0d8339818101604052810190620000379190620004c9565b60005b8151811015620000c457600a82828151811062000080577f4e487b7100000000000000000000000000000000000000000000000000000000600052603260045260246000fd5b602002602001015190806001815401808255809150506001900390600052602060002001600090919091909150558080620000bb90620007f5565b9150506200003a565b508360059080519060200190620000dd929190620002ee565b508160039080519060200190620000f6929190620002ee565b5082600490805190602001906200010f929190620002ee565b50846006908051906020019062000128929190620002ee565b5086600181905550603c866200013f91906200071e565b426200014c9190620006c1565b60008190555073a064b78ac6b95980747ced9fb02532d390ea4af9600760006101000a81548173ffffffffffffffffffffffffffffffffffffffff021916908373ffffffffffffffffffffffffffffffffffffffff1602179055506000600a600081548110620001e5577f4e487b7100000000000000000000000000000000000000000000000000000000600052603260045260246000fd5b90600052602060002001546040516020016200020291906200060e565b6040516020818303038152906040528051906020012090506000600a60018154811062000258577f4e487b7100000000000000000000000000000000000000000000000000000000600052603260045260246000fd5b90600052602060002001546040516020016200027591906200060e565b60405160208183030381529060405280519060200120905060098290806001815401808255809150506001900390600052602060002001600090919091909150556009819080600181540180825580915050600190039060005260206000200160009091909190915055505050505050505050620008f4565b828054620002fc90620007bf565b90600052602060002090601f0160209004810192826200032057600085556200036c565b82601f106200033b57805160ff19168380011785556200036c565b828001600101855582156200036c579182015b828111156200036b5782518255916020019190600101906200034e565b5b5090506200037b91906200037f565b5090565b5b808211156200039a57600081600090555060010162000380565b5090565b6000620003b5620003af846200065f565b6200062b565b90508083825260208201905082856020860282011115620003d557600080fd5b60005b85811015620004095781620003ee8882620004b2565b845260208401935060208301925050600181019050620003d8565b5050509392505050565b60006200042a62000424846200068e565b6200062b565b9050828152602081018484840111156200044357600080fd5b6200045084828562000789565b509392505050565b600082601f8301126200046a57600080fd5b81516200047c8482602086016200039e565b91505092915050565b600082601f8301126200049757600080fd5b8151620004a984826020860162000413565b91505092915050565b600081519050620004c381620008da565b92915050565b600080600080600080600060e0888a031215620004e557600080fd5b6000620004f58a828b01620004b2565b9750506020620005088a828b01620004b2565b965050604088015167ffffffffffffffff8111156200052657600080fd5b620005348a828b0162000485565b955050606088015167ffffffffffffffff8111156200055257600080fd5b620005608a828b0162000485565b945050608088015167ffffffffffffffff8111156200057e57600080fd5b6200058c8a828b0162000485565b93505060a088015167ffffffffffffffff811115620005aa57600080fd5b620005b88a828b0162000485565b92505060c088015167ffffffffffffffff811115620005d657600080fd5b620005e48a828b0162000458565b91505092959891949750929550565b6200060862000602826200077f565b62000843565b82525050565b60006200061c8284620005f3565b60208201915081905092915050565b6000604051905081810181811067ffffffffffffffff82111715620006555762000654620008ab565b5b8060405250919050565b600067ffffffffffffffff8211156200067d576200067c620008ab565b5b602082029050602081019050919050565b600067ffffffffffffffff821115620006ac57620006ab620008ab565b5b601f19601f8301169050602081019050919050565b6000620006ce826200077f565b9150620006db836200077f565b9250827fffffffffffffffffffffffffffffffffffffffffffffffffffffffffffffffff038211156200071357620007126200084d565b5b828201905092915050565b60006200072b826200077f565b915062000738836200077f565b9250817fffffffffffffffffffffffffffffffffffffffffffffffffffffffffffffffff04831182151516156200077457620007736200084d565b5b828202905092915050565b6000819050919050565b60005b83811015620007a95780820151818401526020810190506200078c565b83811115620007b9576000848401525b50505050565b60006002820490506001821680620007d857607f821691505b60208210811415620007ef57620007ee6200087c565b5b50919050565b600062000802826200077f565b91507fffffffffffffffffffffffffffffffffffffffffffffffffffffffffffffffff8214156200083857620008376200084d565b5b600182019050919050565b6000819050919050565b7f4e487b7100000000000000000000000000000000000000000000000000000000600052601160045260246000fd5b7f4e487b7100000000000000000000000000000000000000000000000000000000600052602260045260246000fd5b7f4e487b7100000000000000000000000000000000000000000000000000000000600052604160045260246000fd5b620008e5816200077f565b8114620008f157600080fd5b50565b61250980620009046000396000f3fe6080604052600436106101025760003560e01c806373d4a13a11610095578063b780b8c011610064578063b780b8c014610376578063bfa1c5d5146103a6578063dd5f7bdb146103d1578063dfb077121461040e578063f94126f01461044b57610103565b806373d4a13a146102b0578063767800de146102db5780637ee50a1714610306578063809f3bc41461033157610103565b80633bd1072c116100d15780633bd1072c146101e057806346f0d45b1461021d5780634cf088d91461025a57806352af97281461028557610103565b8063030669c9146101125780630556c70f1461014f578063228cb7331461018c578063293be456146101b757610103565b5b34801561010f57600080fd5b50005b34801561011e57600080fd5b50610139600480360381019061013491906119c9565b610474565b6040516101469190612069565b60405180910390f35b34801561015b57600080fd5b50610176600480360381019061017191906119c9565b610498565b6040516101839190611f4c565b60405180910390f35b34801561019857600080fd5b506101a16104bc565b6040516101ae9190612069565b60405180910390f35b3480156101c357600080fd5b506101de60048036038101906101d991906119c9565b6104c2565b005b3480156101ec57600080fd5b5061020760048036038101906102029190611a2e565b6104cc565b6040516102149190612069565b60405180910390f35b34801561022957600080fd5b50610244600480360381019061023f91906118d4565b6105a1565b6040516102519190611e96565b60405180910390f35b34801561026657600080fd5b5061026f6106ca565b60405161027c9190612069565b60405180910390f35b34801561029157600080fd5b5061029a6106d0565b6040516102a79190611f67565b60405180910390f35b3480156102bc57600080fd5b506102c561075e565b6040516102d29190611f67565b60405180910390f35b3480156102e757600080fd5b506102f06107ec565b6040516102fd9190611e7b565b60405180910390f35b34801561031257600080fd5b5061031b610812565b6040516103289190612069565b60405180910390f35b34801561033d57600080fd5b5061035860048036038101906103539190611882565b6109b8565b60405161036d99989796959493929190611eb1565b60405180910390f35b610390600480360381019061038b9190611910565b610b23565b60405161039d9190611e96565b60405180910390f35b3480156103b257600080fd5b506103bb610e31565b6040516103c89190612069565b60405180910390f35b3480156103dd57600080fd5b506103f860048036038101906103f391906119f2565b610e37565b6040516104059190612069565b60405180910390f35b34801561041a57600080fd5b50610435600480360381019061043091906119c9565b611374565b6040516104429190612069565b60405180910390f35b34801561045757600080fd5b50610472600480360381019061046d91906118ab565b61138c565b005b600a818154811061048457600080fd5b906000526020600020016000915090505481565b600981815481106104a857600080fd5b906000526020600020016000915090505481565b60015481565b8060018190555050565b60008060058463ffffffff16101580156104ec5750600a8463ffffffff16105b156104f657600190505b600a8463ffffffff161061050957600290505b600081141561055357600a8361051f919061224e565b606e61052b919061228c565b63ffffffff1661271060015461054191906121c3565b61054b91906121f4565b91505061059b565b600a83610560919061224e565b606e61056c919061228c565b63ffffffff168161271060015461058391906121c3565b61058d91906121f4565b61059791906121f4565b9150505b92915050565b6000600c60003373ffffffffffffffffffffffffffffffffffffffff1673ffffffffffffffffffffffffffffffffffffffff16815260200190815260200160002060000160009054906101000a900460ff16610632576040517f08c379a000000000000000000000000000000000000000000000000000000000815260040161062990612049565b60405180910390fd5b82600c60003373ffffffffffffffffffffffffffffffffffffffff1673ffffffffffffffffffffffffffffffffffffffff1681526020019081526020016000206001018190555081600c60003373ffffffffffffffffffffffffffffffffffffffff1673ffffffffffffffffffffffffffffffffffffffff168152602001908152602001600020600701819055506001905092915050565b60025481565b600580546106dd90612364565b80601f016020809104026020016040519081016040528092919081815260200182805461070990612364565b80156107565780601f1061072b57610100808354040283529160200191610756565b820191906000526020600020905b81548152906001019060200180831161073957829003601f168201915b505050505081565b6006805461076b90612364565b80601f016020809104026020016040519081016040528092919081815260200182805461079790612364565b80156107e45780601f106107b9576101008083540402835291602001916107e4565b820191906000526020600020905b8154815290600101906020018083116107c757829003601f168201915b505050505081565b600760009054906101000a900473ffffffffffffffffffffffffffffffffffffffff1681565b600062015180600054610825919061216d565b421015610867576040517f08c379a000000000000000000000000000000000000000000000000000000000815260040161085e90611fa9565b60405180910390fd5b600b6000600a6001815481106108a6577f4e487b7100000000000000000000000000000000000000000000000000000000600052603260045260246000fd5b9060005260206000200154815260200190815260200160002054600b6000600a6000815481106108ff577f4e487b7100000000000000000000000000000000000000000000000000000000600052603260045260246000fd5b9060005260206000200154815260200190815260200160002054111561096c57600a60008154811061095a577f4e487b7100000000000000000000000000000000000000000000000000000000600052603260045260246000fd5b906000526020600020015490506109b5565b600a6001815481106109a7577f4e487b7100000000000000000000000000000000000000000000000000000000600052603260045260246000fd5b906000526020600020015490505b90565b600c6020528060005260406000206000915090508060000160009054906101000a900460ff16908060010154908060020180546109f490612364565b80601f0160208091040260200160405190810160405280929190818152602001828054610a2090612364565b8015610a6d5780601f10610a4257610100808354040283529160200191610a6d565b820191906000526020600020905b815481529060010190602001808311610a5057829003601f168201915b505050505090806003015490806004015490806005018054610a8e90612364565b80601f0160208091040260200160405190810160405280929190818152602001828054610aba90612364565b8015610b075780601f10610adc57610100808354040283529160200191610b07565b820191906000526020600020905b815481529060010190602001808311610aea57829003601f168201915b5050505050908060060154908060070154908060080154905089565b6000610b2f83836104cc565b3414610b70576040517f08c379a0000000000000000000000000000000000000000000000000000000008152600401610b6790611f89565b60405180910390fd5b600760009054906101000a900473ffffffffffffffffffffffffffffffffffffffff1673ffffffffffffffffffffffffffffffffffffffff16848051906020012060001c60601b60601c73ffffffffffffffffffffffffffffffffffffffff1614610c10576040517f08c379a0000000000000000000000000000000000000000000000000000000008152600401610c0790611fe9565b60405180910390fd5b3460026000828254610c22919061216d565b925050819055506008339080600181540180825580915050600190039060005260206000200160009091909190916101000a81548173ffffffffffffffffffffffffffffffffffffffff021916908373ffffffffffffffffffffffffffffffffffffffff16021790555086600c60003373ffffffffffffffffffffffffffffffffffffffff1673ffffffffffffffffffffffffffffffffffffffff1681526020019081526020016000206002019080519060200190610ce2929190611635565b506001600c60003373ffffffffffffffffffffffffffffffffffffffff1673ffffffffffffffffffffffffffffffffffffffff16815260200190815260200160002060000160006101000a81548160ff02191690831515021790555085600c60003373ffffffffffffffffffffffffffffffffffffffff1673ffffffffffffffffffffffffffffffffffffffff1681526020019081526020016000206003018190555084600c60003373ffffffffffffffffffffffffffffffffffffffff1673ffffffffffffffffffffffffffffffffffffffff1681526020019081526020016000206004018190555083600c60003373ffffffffffffffffffffffffffffffffffffffff1673ffffffffffffffffffffffffffffffffffffffff1681526020019081526020016000206005019080519060200190610e229291906116bb565b50600190509695505050505050565b60005481565b6000600c60003373ffffffffffffffffffffffffffffffffffffffff1673ffffffffffffffffffffffffffffffffffffffff16815260200190815260200160002060000160009054906101000a900460ff16610ec8576040517f08c379a0000000000000000000000000000000000000000000000000000000008152600401610ebf90612049565b60405180910390fd5b600054421015610f0d576040517f08c379a0000000000000000000000000000000000000000000000000000000008152600401610f0490611fc9565b60405180910390fd5b600083604051602001610f209190611e60565b604051602081830303815290604052805190602001209050600c60003373ffffffffffffffffffffffffffffffffffffffff1673ffffffffffffffffffffffffffffffffffffffff168152602001908152602001600020600101546009600081548110610fb6577f4e487b7100000000000000000000000000000000000000000000000000000000600052603260045260246000fd5b906000526020600020015482604051602001610fd3929190611e1d565b6040516020818303038152906040528051906020012014156111525761271083610ffd91906121f4565b600b6000600a60008154811061103c577f4e487b7100000000000000000000000000000000000000000000000000000000600052603260045260246000fd5b9060005260206000200154815260200190815260200160002054611060919061216d565b600b6000600a60008154811061109f577f4e487b7100000000000000000000000000000000000000000000000000000000600052603260045260246000fd5b90600052602060002001548152602001908152602001600020819055506000600c60003373ffffffffffffffffffffffffffffffffffffffff1673ffffffffffffffffffffffffffffffffffffffff16815260200190815260200160002060060181905550600a60008154811061113f577f4e487b7100000000000000000000000000000000000000000000000000000000600052603260045260246000fd5b906000526020600020015491505061136e565b600c60003373ffffffffffffffffffffffffffffffffffffffff1673ffffffffffffffffffffffffffffffffffffffff1681526020019081526020016000206001015460096001815481106111d0577f4e487b7100000000000000000000000000000000000000000000000000000000600052603260045260246000fd5b9060005260206000200154826040516020016111ed929190611e1d565b60405160208183030381529060405280519060200120141561136c576127108361121791906121f4565b600b6000600a600181548110611256577f4e487b7100000000000000000000000000000000000000000000000000000000600052603260045260246000fd5b906000526020600020015481526020019081526020016000205461127a919061216d565b600b6000600a6001815481106112b9577f4e487b7100000000000000000000000000000000000000000000000000000000600052603260045260246000fd5b90600052602060002001548152602001908152602001600020819055506001600c60003373ffffffffffffffffffffffffffffffffffffffff1673ffffffffffffffffffffffffffffffffffffffff16815260200190815260200160002060060181905550600a600181548110611359577f4e487b7100000000000000000000000000000000000000000000000000000000600052603260045260246000fd5b906000526020600020015491505061136e565b505b92915050565b600b6020528060005260406000206000915090505481565b6202a30060005461139d919061216d565b4210156113df576040517f08c379a00000000000000000000000000000000000000000000000000000000081526004016113d690612029565b60405180910390fd5b600c60003373ffffffffffffffffffffffffffffffffffffffff1673ffffffffffffffffffffffffffffffffffffffff16815260200190815260200160002060000160009054906101000a900460ff1661143857600080fd5b3373ffffffffffffffffffffffffffffffffffffffff16600c60003373ffffffffffffffffffffffffffffffffffffffff1673ffffffffffffffffffffffffffffffffffffffff16815260200190815260200160002060050160405161149e9190611e49565b604051809103902060001c60601b60601c73ffffffffffffffffffffffffffffffffffffffff1614611505576040517f08c379a00000000000000000000000000000000000000000000000000000000081526004016114fc90611fe9565b60405180910390fd5b600c60003373ffffffffffffffffffffffffffffffffffffffff1673ffffffffffffffffffffffffffffffffffffffff168152602001908152602001600020600701548114611589576040517f08c379a000000000000000000000000000000000000000000000000000000000815260040161158090612009565b60405180910390fd5b3073ffffffffffffffffffffffffffffffffffffffff166108fc600b6000600c60003373ffffffffffffffffffffffffffffffffffffffff1673ffffffffffffffffffffffffffffffffffffffff1681526020019081526020016000206006015481526020019081526020016000205460015461160691906121c3565b9081150290604051600060405180830381858888f19350505050158015611631573d6000803e3d6000fd5b5050565b82805461164190612364565b90600052602060002090601f01602090048101928261166357600085556116aa565b82601f1061167c57805160ff19168380011785556116aa565b828001600101855582156116aa579182015b828111156116a957825182559160200191906001019061168e565b5b5090506116b79190611741565b5090565b8280546116c790612364565b90600052602060002090601f0160209004810192826116e95760008555611730565b82601f1061170257805160ff1916838001178555611730565b82800160010185558215611730579182015b8281111561172f578251825591602001919060010190611714565b5b50905061173d9190611741565b5090565b5b8082111561175a576000816000905550600101611742565b5090565b600061177161176c846120b5565b612084565b90508281526020810184848401111561178957600080fd5b611794848285612322565b509392505050565b60006117af6117aa846120e5565b612084565b9050828152602081018484840111156117c757600080fd5b6117d2848285612322565b509392505050565b6000813590506117e981612477565b92915050565b6000813590506117fe8161248e565b92915050565b600082601f83011261181557600080fd5b813561182584826020860161175e565b91505092915050565b600082601f83011261183f57600080fd5b813561184f84826020860161179c565b91505092915050565b600081359050611867816124a5565b92915050565b60008135905061187c816124bc565b92915050565b60006020828403121561189457600080fd5b60006118a2848285016117da565b91505092915050565b6000602082840312156118bd57600080fd5b60006118cb848285016117ef565b91505092915050565b600080604083850312156118e757600080fd5b60006118f5858286016117ef565b9250506020611906858286016117ef565b9150509250929050565b60008060008060008060c0878903121561192957600080fd5b600087013567ffffffffffffffff81111561194357600080fd5b61194f89828a0161182e565b965050602061196089828a01611858565b955050604061197189828a01611858565b945050606087013567ffffffffffffffff81111561198e57600080fd5b61199a89828a01611804565b93505060806119ab89828a0161186d565b92505060a06119bc89828a0161186d565b9150509295509295509295565b6000602082840312156119db57600080fd5b60006119e984828501611858565b91505092915050565b60008060408385031215611a0557600080fd5b6000611a1385828601611858565b9250506020611a2485828601611858565b9150509250929050565b60008060408385031215611a4157600080fd5b6000611a4f8582860161186d565b9250506020611a608582860161186d565b9150509250929050565b611a73816122c0565b82525050565b611a82816122d2565b82525050565b611a91816122de565b82525050565b611aa8611aa3826122de565b612396565b82525050565b6000611ab98261212a565b611ac38185612140565b9350611ad3818560208601612331565b611adc81612466565b840191505092915050565b60008154611af481612364565b611afe8186612151565b94506001821660008114611b195760018114611b2a57611b5d565b60ff19831686528186019350611b5d565b611b3385612115565b60005b83811015611b5557815481890152600182019150602081019050611b36565b838801955050505b50505092915050565b6000611b7182612135565b611b7b818561215c565b9350611b8b818560208601612331565b611b9481612466565b840191505092915050565b6000611bac600c8361215c565b91507f57726f6e672076616c75652100000000000000000000000000000000000000006000830152602082019050919050565b6000611bec601e8361215c565b91507f49742069736e277420612074696d6520746f2073686f7720616e7377657200006000830152602082019050919050565b6000611c2c60248361215c565b91507f49742773206e6f7420612074696d6520746f2061676772656761746520616e7360008301527f7765722e000000000000000000000000000000000000000000000000000000006020830152604082019050919050565b6000611c9260218361215c565b91507f596f7520636f756c646e2774207573652074686973206365727469666963617460008301527f65000000000000000000000000000000000000000000000000000000000000006020830152604082019050919050565b6000611cf860318361215c565b91507f596f75722070726f6f66206973206e6f74207468652073616d6520776974682060008301527f7468652070726576696f7573206f6e652e0000000000000000000000000000006020830152604082019050919050565b6000611d5e60228361215c565b91507f49742069736e277420612074696d6520746f207769746864726177207265776160008301527f72640000000000000000000000000000000000000000000000000000000000006020830152604082019050919050565b6000611dc460208361215c565b91507f596f752068617665206e6f742061636365707465642074686973207461736b2e6000830152602082019050919050565b611e0081612308565b82525050565b611e17611e1282612308565b6123a0565b82525050565b6000611e298285611a97565b602082019150611e398284611a97565b6020820191508190509392505050565b6000611e558284611ae7565b915081905092915050565b6000611e6c8284611e06565b60208201915081905092915050565b6000602082019050611e906000830184611a6a565b92915050565b6000602082019050611eab6000830184611a79565b92915050565b600061012082019050611ec7600083018c611a79565b611ed4602083018b611a88565b8181036040830152611ee6818a611b66565b9050611ef56060830189611df7565b611f026080830188611df7565b81810360a0830152611f148187611aae565b9050611f2360c0830186611df7565b611f3060e0830185611a88565b611f3e610100830184611df7565b9a9950505050505050505050565b6000602082019050611f616000830184611a88565b92915050565b60006020820190508181036000830152611f818184611b66565b905092915050565b60006020820190508181036000830152611fa281611b9f565b9050919050565b60006020820190508181036000830152611fc281611bdf565b9050919050565b60006020820190508181036000830152611fe281611c1f565b9050919050565b6000602082019050818103600083015261200281611c85565b9050919050565b6000602082019050818103600083015261202281611ceb565b9050919050565b6000602082019050818103600083015261204281611d51565b9050919050565b6000602082019050818103600083015261206281611db7565b9050919050565b600060208201905061207e6000830184611df7565b92915050565b6000604051905081810181811067ffffffffffffffff821117156120ab576120aa612437565b5b8060405250919050565b600067ffffffffffffffff8211156120d0576120cf612437565b5b601f19601f8301169050602081019050919050565b600067ffffffffffffffff821115612100576120ff612437565b5b601f19601f8301169050602081019050919050565b60008190508160005260206000209050919050565b600081519050919050565b600081519050919050565b600082825260208201905092915050565b600081905092915050565b600082825260208201905092915050565b600061217882612308565b915061218383612308565b9250827fffffffffffffffffffffffffffffffffffffffffffffffffffffffffffffffff038211156121b8576121b76123aa565b5b828201905092915050565b60006121ce82612308565b91506121d983612308565b9250826121e9576121e86123d9565b5b828204905092915050565b60006121ff82612308565b915061220a83612308565b9250817fffffffffffffffffffffffffffffffffffffffffffffffffffffffffffffffff0483118215151615612243576122426123aa565b5b828202905092915050565b600061225982612312565b915061226483612312565b92508163ffffffff0483118215151615612281576122806123aa565b5b828202905092915050565b600061229782612312565b91506122a283612312565b9250828210156122b5576122b46123aa565b5b828203905092915050565b60006122cb826122e8565b9050919050565b60008115159050919050565b6000819050919050565b600073ffffffffffffffffffffffffffffffffffffffff82169050919050565b6000819050919050565b600063ffffffff82169050919050565b82818337600083830152505050565b60005b8381101561234f578082015181840152602081019050612334565b8381111561235e576000848401525b50505050565b6000600282049050600182168061237c57607f821691505b602082108114156123905761238f612408565b5b50919050565b6000819050919050565b6000819050919050565b7f4e487b7100000000000000000000000000000000000000000000000000000000600052601160045260246000fd5b7f4e487b7100000000000000000000000000000000000000000000000000000000600052601260045260246000fd5b7f4e487b7100000000000000000000000000000000000000000000000000000000600052602260045260246000fd5b7f4e487b7100000000000000000000000000000000000000000000000000000000600052604160045260246000fd5b6000601f19601f8301169050919050565b612480816122c0565b811461248b57600080fd5b50565b612497816122de565b81146124a257600080fd5b50565b6124ae81612308565b81146124b957600080fd5b50565b6124c581612312565b81146124d057600080fd5b5056fea2646970667358221220a27895368f7c8e9d4d42d67cc2fb9d33c9e8c89ad232e12a2e0134faca6019b364736f6c63430008000033",
  "linkReferences": {},
  "deployedLinkReferences": {}
}